:100000000C942A000C9456020C943C000C943C0076
:100010000C943C000C943C000C943C000C943C0070
:100020000C943C000C943C000C943C000C943C0060
:100030000C943C000C943C000C943C000C943C0050
:100040000C943C000C943C000C943C000C943C0040
:100050000C943C0011241FBECFE5D8E0DEBFCDBF1D
:1000600020E0A0E6B0E001C01D92AA36B207E1F799
:100070000E94C5030C94D9030C940000823419F13A
:1000800018F4813439F008958334A9F1843409F4E3
:100090004AC0089541110AC02AB381E090E001C02E
:1000A000880F6A95EAF7809582230BC0413009F0EA
:1000B00052C02AB381E090E001C0880F6A95EAF748
:1000C000822B8ABB089541110AC027B381E090E0DA
:1000D00001C0880F6A95EAF7809582230AC04130F3
:1000E000D1F527B381E090E001C0880F6A95EAF767
:1000F000822B87BB089541110AC024B381E090E0B0
:1001000001C0880F6A95EAF7809582230AC04130C2
:1001100011F524B381E090E001C0880F6A95EAF7F9
:10012000822B84BB089541110AC021B381E090E085
:1001300001C0880F6A95EAF7809582230AC0413092
:1001400051F421B381E090E001C0880F6A95EAF78D
:10015000822B81BB08958F9A979A0895823419F162
:1001600018F4813439F008958334A9F1843409F402
:100170004AC0089541110AC02BB381E090E001C04C
:10018000880F6A95EAF7809582230BC0413009F009
:1001900052C02BB381E090E001C0880F6A95EAF766
:1001A000822B8BBB089541110AC028B381E090E0F7
:1001B00001C0880F6A95EAF7809582230AC0413012
:1001C000D1F528B381E090E001C0880F6A95EAF785
:1001D000822B88BB089541110AC025B381E090E0CD
:1001E00001C0880F6A95EAF7809582230AC04130E2
:1001F00011F525B381E090E001C0880F6A95EAF718
:10020000822B85BB089541110AC022B381E090E0A2
:1002100001C0880F6A95EAF7809582230AC04130B1
:1002200051F422B381E090E001C0880F6A95EAF7AB
:10023000822B82BB08958F9A979A0895282FCA011E
:100240002234D9F060F4213469F54BB321E030E079
:1002500001C0220F6A95EAF724272BBB21C0233463
:10026000B1F02434F9F442B321E030E001C0220FB0
:100270006A95EAF7242722BB13C048B321E030E097
:1002800001C0220F6A95EAF7242728BB09C045B3AD
:1002900021E030E001C0220F6A95EAF7242725BB50
:1002A0000C947E018F9A979A0895FA01823459F03E
:1002B00020F48134E9F429B309C0833431F0843463
:1002C000B9F420B303C026B301C023B381E090E0AA
:1002D000062E02C0880F991F0A94E2F730E08223AD
:1002E000932302C0959587956A95E2F780830895D8
:1002F0008F9A979A089513BE12BE089583B78160AE
:1003000083BF30E0292FA8EEB3E00E94CA036093B8
:10031000600070936100809362009093630080910D
:10032000640090916500A0E0B0E0409160005091C1
:100330006100609162007091630084179507A607C1
:10034000B70780F408B600FEFDCF88B7816088BF8C
:100350008091640090916500019690936500809370
:100360006400DDCF109265001092640013BE089502
:1003700083B7816083BF08B600FEFDCF88B7816078
:1003800088BF13BE08957894813359F0823371F099
:10039000803389F48BB780648BBF8A98AF9AA79A11
:1003A00008958BB780688BBF8B9808958BB7806258
:1003B0008BBFBA9808958F9A979A08958133E9F080
:1003C0008233A9F18033E9F5623531F485B7836072
:1003D00085BFAB9AA39A0895663431F485B78E7FB2
:1003E00085BF85B7826007C06334E1F485B781605B
:1003F00085BF85B78D7F85BF0895623519F485B7B0
:100400008C60F9CF663431F485B78B7F85BF85B7B3
:100410008860F1CF633431F485B7846085BF85B7D8
:10042000877FE9CF6C3469F485B78C7FE4CF85B7DB
:10043000623511F48064DFCF8F7B85BF663409F4A9
:1004400008958F9A979A089541E00C943E0041E0F8
:100450000C94AE0040E00C94AE000C941E01089584
:1004600040E00C943E000C94550180E30E94C301CF
:1004700062E580E30E94DE010E947B0160E081E48E
:100480000E94240261E081E40E94240262E081E48F
:100490000E94240260E082E40E94240261E082E47F
:1004A0000E94240262E082E40C9424021F920F92C4
:1004B0000FB60F9211248F939F93809166009091B5
:1004C00067000197029758F481E0809369001092C9
:1004D000680083E090E090936700809366009F91AE
:1004E0008F910F900FBE0F901F901895CF9360E0E3
:1004F00082E40E942A0261E082E40E942A0262E011
:1005000082E40E942A0260E081E40E942A0261E003
:1005100081E40E942A0262E081E40E942702CAE08C
:1005200084EF91E00E947E01C150D1F7CF910895F0
:10053000CF9362E081E40E942A0260E082E40E949C
:100540002A0261E081E40E942A0261E082E40E94C2
:100550002A0260E081E40E94270262E082E40E94B5
:100560002702CAE084EF91E00E947E01C150D1F7DA
:10057000CF910895CF9360E081E40E942A0262E067
:1005800082E40E942A0261E081E40E942A0261E082
:1005900082E40E942A0262E081E40E94270260E075
:1005A00082E40E942702CAE084EF91E00E947E016B
:1005B000C150D1F7CF910895CF93C5E061E081E4B8
:1005C0000E94270261E082E40E94270284EF91E00A
:1005D0000E947E0161E081E40E942A0261E082E4DF
:1005E0000E942A0284EF91E00E947E01C15031F7FF
:1005F000CF910895CF931092690060E082E40E9449
:100600002A0261E082E40E942A0262E082E40E94FF
:100610002A0262E081E40E942A0261E081E40E94F1
:100620002A0260E081E40E942702CAE084EF91E0A0
:100630000E947E0180916900813039F480916800C8
:10064000811103C0CF910C94DC02C15079F7CF9196
:100650000895CF9360E082E40E942A0261E082E480
:100660000E942A0262E082E40E942A02CAE044EF69
:1006700051E061E081E40E942D02809169008130A7
:1006800019F4CF910C94DC02C15089F7CF910895F1
:100690008091660090916700059720F010926700A6
:1006A00010926600809166009091670081309105FC
:1006B00001F138F082309105C1F1039709F443C08C
:1006C00008958091680081111092690080916900FD
:1006D000811103C00E94760205C0813009F054C028
:1006E0000E94BA0281E090E09093670080936600D8
:1006F000089580916900811113C00E94290380919F
:100700006600909167008130910519F482E090E0D5
:10071000EBCF0397C9F51092670010926600089519
:10072000813091F50E94DC02EACF8091690081114D
:1007300003C00E94FA0204C0813031F50E94980281
:1007400083E090E0D1CF809169008823B1F28130BD
:10075000D9F40E94DC02809166009091670081309C
:10076000910539F482E090E09093670080936600F1
:1007700006C0039721F410926700109266008091E2
:1007800068008F5F8093680008950E9435020E9480
:100790004803FDCFA29FB001B39FC001A39F700D7E
:1007A000811D1124911DB29F700D811D1124911D79
:0607B0000895F894FFCF4C
:00000001FF
