:100000000C942A000C9461020C9447000C94470055
:100010000C9447000C9447000C9447000C94470044
:100020000C9447000C9447000C9447000C94470034
:100030000C9447000C9447000C9447000C94470024
:100040000C9447000C9447000C9447000C94470014
:100050000C94470011241FBECFE5D8E0DEBFCDBF12
:1000600010E0A0E6B0E0E0ECF7E002C005900D92F1
:10007000A236B107D9F720E0A2E6B0E001C01D9298
:10008000AB36B207E1F70E94CA030C94DE030C946E
:100090000000823419F118F4813439F00895833462
:1000A000A9F1843409F44AC0089541110AC02AB361
:1000B00081E090E001C0880F6A95EAF7809582237D
:1000C0000BC0413009F052C02AB381E090E001C07A
:1000D000880F6A95EAF7822B8ABB089541110AC0FE
:1000E00027B381E090E001C0880F6A95EAF7809518
:1000F00082230AC04130D1F527B381E090E001C0EE
:10010000880F6A95EAF7822B87BB089541110AC0D0
:1001100024B381E090E001C0880F6A95EAF78095EA
:1001200082230AC0413011F524B381E090E001C080
:10013000880F6A95EAF7822B84BB089541110AC0A3
:1001400021B381E090E001C0880F6A95EAF78095BD
:1001500082230AC0413051F421B381E090E001C014
:10016000880F6A95EAF7822B81BB08958F9A979A38
:100170000895823419F118F4813439F008958334E4
:10018000A9F1843409F44AC0089541110AC02BB37F
:1001900081E090E001C0880F6A95EAF7809582239C
:1001A0000BC0413009F052C02BB381E090E001C098
:1001B000880F6A95EAF7822B8BBB089541110AC01C
:1001C00028B381E090E001C0880F6A95EAF7809536
:1001D00082230AC04130D1F528B381E090E001C00C
:1001E000880F6A95EAF7822B88BB089541110AC0EF
:1001F00025B381E090E001C0880F6A95EAF7809509
:1002000082230AC0413011F525B381E090E001C09E
:10021000880F6A95EAF7822B85BB089541110AC0C1
:1002200022B381E090E001C0880F6A95EAF78095DB
:1002300082230AC0413051F422B381E090E001C032
:10024000880F6A95EAF7822B82BB08958F9A979A56
:100250000895282FCA012234D9F060F4213469F5B9
:100260004BB321E030E001C0220F6A95EAF7242762
:100270002BBB21C02334B1F02434F9F442B321E084
:1002800030E001C0220F6A95EAF7242722BB13C091
:1002900048B321E030E001C0220F6A95EAF7242735
:1002A00028BB09C045B321E030E001C0220F6A95A8
:1002B000EAF7242725BB0C9489018F9A979A089511
:1002C000FA01823459F020F48134E9F429B309C0E9
:1002D000833431F08434B9F420B303C026B301C0B1
:1002E00023B381E090E0062E02C0880F991F0A9484
:1002F000E2F730E08223932302C0959587956A95B3
:10030000E2F7808308958F9A979A089513BE12BEDC
:10031000089583B7816083BF30E0292FA8EEB3E052
:100320000E94CF0360936200709363008093640027
:10033000909365008091660090916700A0E0B0E026
:10034000409162005091630060916400709165007B
:1003500084179507A607B70780F408B600FEFDCFFF
:1003600088B7816088BF8091660090916700019690
:100370009093670080936600DDCF10926700109223
:10038000660013BE089583B7816083BF08B600FE80
:10039000FDCF88B7816088BF13BE089578948133FC
:1003A00059F0823371F0803389F48BB780648BBF4E
:1003B0008A98AF9AA79A08958BB780688BBF8B985D
:1003C00008958BB780628BBFBA9808958F9A979AD9
:1003D00008958133E9F08233A9F18033E9F562357C
:1003E00031F485B7836085BFAB9AA39A08956634CC
:1003F00031F485B78E7F85BF85B7826007C06334CF
:10040000E1F485B7816085BF85B78D7F85BF08958D
:10041000623519F485B78C60F9CF663431F485B74D
:100420008B7F85BF85B78860F1CF633431F485B7A2
:10043000846085BF85B7877FE9CF6C3469F485B761
:100440008C7FE4CF85B7623511F48064DFCF8F7B7A
:1004500085BF663409F408958F9A979A089541E00C
:100460000C94490041E00C94B90040E00C94B900B0
:100470000C942901089540E00C9449000C9460010B
:1004800080E30E94CE0162E580E30E94E9010E94C0
:10049000860160E081E40E942F0261E081E40E9415
:1004A0002F0262E081E40E942F0260E082E40E9459
:1004B0002F0261E082E40E942F0262E082E40C9449
:1004C0002F021F920F920FB60F9211248F939F93BA
:1004D0008091680090916900029761F41092610028
:1004E0001092600010926A0083E090E0909369009F
:1004F000809368009F918F910F900FBE0F901F9077
:10050000189560E082E40E94350261E082E40E9476
:10051000350262E082E40E94350260E081E40E94DC
:10052000350261E081E40E94350262E081E40E94CC
:10053000320288E893E10C948901CF9381E090E046
:10054000909361008093600060E082E40E94350235
:1005500061E082E40E94350262E082E40E9435029A
:1005600062E081E40E94350261E081E40E9435028C
:1005700060E081E40E943202C4E184EF91E00E94D5
:1005800089018091600090916100892B21F4809114
:100590006A00882311F0C15081F7CF910895CF935D
:1005A00060E082E40E94350261E082E40E9435024C
:1005B00062E082E40E943502C8E048EE53E061E068
:1005C00081E40E943802C150C1F7CF910895CF93C2
:1005D00060E081E40E94350262E082E40E9435021C
:1005E00061E081E40E94350261E082E40E9435020C
:1005F00062E081E40E94320260E082E40E94320202
:10060000C4E184EF91E00E948901C150D1F7CF91FC
:100610000895CF93C4E061E081E40E94320261E07A
:1006200082E40E94320288EE93E00E94890161E038
:1006300081E40E94350261E082E40E94350288EE86
:1006400093E00E948901C15031F7CF910895CF9373
:1006500081E090E0909361008093600062E081E42B
:100660000E94350260E082E40E94350261E081E48C
:100670000E94350261E082E40E94350260E081E47C
:100680000E94320262E082E40E943202C4E184EFFE
:1006900091E00E9489018091600090916100892B16
:1006A00039F480916A00823018F4CF910C940903D8
:1006B000C15069F7CF9108958091680090916900C9
:1006C0008130910519F138F08230910581F103975D
:1006D00009F444C0089580916A00823030F081E0CE
:1006E00090E0909361008093600080916000909111
:1006F00061008130910519F40E94810204C0892BA8
:1007000011F40E94E70281E090E01CC0809160003B
:10071000909161008130910519F40E94CF0204C0CC
:10072000892BB9F50E94090382E090E00BC080910B
:100730006000909161008130910549F40E949D0212
:1007400083E090E090936900809368000895892B7E
:1007500001F50E9427030E94090317C080916000E1
:10076000909161008130910519F40E94CF020DC073
:10077000892B59F462E082E40E9432020E9409034C
:1007800080916A008F5F80936A00109269001092D6
:10079000680008950E9440020E945C03FDCFA29F62
:1007A000B001B39FC001A39F700D811D1124911D45
:1007B000B29F700D811D1124911D0895F894FFCFF3
:0207C000010036
:00000001FF
