:100000000C942A000C9434000C9434000C943400AA
:100010000C9434000C9434000C9434000C94340090
:100020000C9434000C9434000C9434000C94340080
:100030000C9434000C9434000C9434000C94340070
:100040000C9434000C9434000C9434000C94340060
:100050000C94340011241FBECFE5D8E0DEBFCDBF25
:100060000E9417010C9422010C940000823419F1B3
:1000700018F4813439F008958334A9F1843409F4F3
:100080004AC0089541110AC02AB381E090E001C03E
:10009000880F6A95EAF7809582230BC0413009F0FA
:1000A00052C02AB381E090E001C0880F6A95EAF758
:1000B000822B8ABB089541110AC027B381E090E0EA
:1000C00001C0880F6A95EAF7809582230AC0413003
:1000D000D1F527B381E090E001C0880F6A95EAF777
:1000E000822B87BB089541110AC024B381E090E0C0
:1000F00001C0880F6A95EAF7809582230AC04130D3
:1001000011F524B381E090E001C0880F6A95EAF709
:10011000822B84BB089541110AC021B381E090E095
:1001200001C0880F6A95EAF7809582230AC04130A2
:1001300051F421B381E090E001C0880F6A95EAF79D
:10014000822B81BB08958F9A979A0895823419F172
:1001500018F4813439F008958334A9F1843409F412
:100160004AC0089541110AC02BB381E090E001C05C
:10017000880F6A95EAF7809582230BC0413009F019
:1001800052C02BB381E090E001C0880F6A95EAF776
:10019000822B8BBB089541110AC028B381E090E007
:1001A00001C0880F6A95EAF7809582230AC0413022
:1001B000D1F528B381E090E001C0880F6A95EAF795
:1001C000822B88BB089541110AC025B381E090E0DD
:1001D00001C0880F6A95EAF7809582230AC04130F2
:1001E00011F525B381E090E001C0880F6A95EAF728
:1001F000822B85BB089541110AC022B381E090E0B3
:1002000001C0880F6A95EAF7809582230AC04130C1
:1002100051F422B381E090E001C0880F6A95EAF7BB
:10022000822B82BB08958F9A979A0895089541E092
:1002300060E081E40E94360041E060E081E40E94D9
:08024000A600FACFF894FFCFED
:00000001FF
