:10000000823401F000F4813401F00895833401F06A
:10001000843401F400C00895411100C02AB381E086
:1000200090E000C0880F6A9502F48095822300C09A
:10003000413001F000C02AB381E090E000C0880F99
:100040006A9502F4822B8ABB0895411100C027B340
:1000500081E090E000C0880F6A9502F480958223C9
:1000600000C0413001F427B381E090E000C0880F68
:100070006A9502F4822B87BB0895411100C024B316
:1000800081E090E000C0880F6A9502F48095822399
:1000900000C0413001F424B381E090E000C0880F3B
:1000A0006A9502F4822B84BB0895411100C021B3EC
:1000B00081E090E000C0880F6A9502F48095822369
:1000C00000C0413001F421B381E090E000C0880F0E
:1000D0006A9502F4822B81BB08958F9A979A0895AE
:1000E000823401F000F4813401F00895833401F08A
:1000F000843401F400C00895411100C02BB381E0A5
:1001000090E000C0880F6A9502F48095822300C0B9
:10011000413001F000C02BB381E090E000C0880FB7
:100120006A9502F4822B8BBB0895411100C028B35D
:1001300081E090E000C0880F6A9502F480958223E8
:1001400000C0413001F428B381E090E000C0880F86
:100150006A9502F4822B88BB0895411100C025B333
:1001600081E090E000C0880F6A9502F480958223B8
:1001700000C0413001F425B381E090E000C0880F59
:100180006A9502F4822B85BB0895411100C022B309
:1001900081E090E000C0880F6A9502F48095822388
:1001A00000C0413001F422B381E090E000C0880F2C
:1001B0006A9502F4822B82BB08958F9A979A0895CC
:0201C0000895A0
:00000001FF
